:020000040800F2
:10000000100F0020ED010008854E0008D5420008C1
:10001000F54D0008C10A0008D15900080000000091
:10002000000000000000000000000000094F000870
:10003000F50A000800000000054F00088D4F000879
:10004000070200080702000807020008070200086C
:10005000070200080702000807020008070200085C
:10006000070200080702000807020008C50A000886
:10007000D10A0008DD0A0008E90A000807020008A2
:10008000070200080702000807020008070200082C
:10009000070200080702000807020008070200081C
:1000A000070200080702000807020008070200080C
:1000B00007020008070200080702000807020008FC
:1000C00007020008070200080702000807020008EC
:1000D00007020008070200080702000807020008DC
:1000E000F90A0008070200080702000807020008D2
:1000F00007020008070200080702000807020008BC
:1001000007020008070200080702000807020008AB
:10011000070200080702000807020008070200089B
:10012000070200080702000807020008070200088B
:10013000070200080702000807020008070200087B
:10014000070200080702000807020008070200086B
:10015000070200080702000807020008070200085B
:10016000070200080702000807020008070200084B
:10017000070200080702000807020008070200083B
:10018000070200080702000807020008070200082B
:10019000070200080000000007020008070200082C
:1001A000070200080702000807020008070200080B
:1001B00007020008070200080702000807020008FB
:1001C00007020008070200080702000807020008EB
:1001D0000702000807020008DFF80CD000F01AFB45
:1001E00000480047D5590008100F002006488047F6
:1001F00006480047FEE7FEE7FEE7FEE7FEE7FEE70C
:10020000FEE7FEE7FEE7FEE7914F0008D901000890
:100210002DE9F05F0546002092469B46884606463B
:10022000814640241BE0284641464746224600F0CE
:10023000F8F953465A46C01A914110D31146184650
:10024000224600F0DFF92D1A67EB01084F462246DF
:100250000120002100F0D6F917EB00094E41201EC5
:10026000A4F10104DFDC484631462A464346BDE896
:10027000F09FD2B201E000F8012B491EFBD270477B
:100280000022F6E710B513460A4604461946FFF762
:10029000F0FF204610BD2DE9FE4F804681EA0300A5
:1002A000C00F0C46009021F0004123F00045B8EB50
:1002B0000200A94105D24046214690461C460B4605
:1002C000024623F00040104347D0270DC7F30A0031
:1002D000C3F30A510290401A019040286BDAC3F32D
:1002E000130040F4801B0098924620B10023D2EB0B
:1002F000030A63EB0B0B01985946C0F140025046CC
:1003000000F080F906460D4650465946019A00F025
:1003100098F910EB08006141002487EA115284EA41
:10032000E7731A4340D0009A62B3019A012A4FEA58
:10033000075215DC001B61EB02014FF0004202EA9C
:100340000752CDE90042001C41F5801132462B4690
:1003500000F0CFF903B0BDE8F08F40462146F9E741
:10036000001B61EB0201001C41F5801300185B418A
:100370002018A2F5001747EB030140EAD570B61923
:100380006D4111E06D084FEA360645EAC0754FEA47
:100390000752001B61EB0201001C41F58011490866
:1003A0004FEA30000019514132462B4603B0BDE8F8
:1003B000F04F00F08FB90098012240000023D0EBED
:1003C000020263EBE073009821464FEAE074B8EB59
:1003D000000061EB0401E9E783F000435BE781F093
:1003E000004158E72DE9FE4F81EA030404F0004480
:1003F00021F0004100944FF0000B23F0004350EA3D
:1004000001045ED052EA03045BD0C3F30A54C1F383
:100410000A552C44A4F2F3340194A0FB0254C1F316
:10042000130141F48011C3F3130343F4801301FB60
:10043000024400FB034E840A970A44EA815447EAC7
:100440008357A4FB076802958D0A05FB07854FEAD1
:10045000932C04FB0C542705029D4FEA065847EAEB
:100460001637B5EB08056EEB070C870E920E47EAC0
:10047000811742EA8312A7FB0201B6EB0B0164EB82
:1004800000042B0D43EA0C335E1844EB1C50DA4693
:100490005146E7FB0201C5F313044FEA0B3343EA6D
:1004A00014534FEA0432019C43EA0603A4F10C04FE
:1004B0000294009CCDE900B400F01BF903B0BDE844
:1004C000F08F00200146F9E72DE9F04D81EA0304A1
:1004D00004F0004B21F0004514464FF0000A23F0D1
:1004E000004150EA050220D054EA01021DD0C5F3B4
:1004F0000A570246C5F31303C1F31300C1F30A56AA
:1005000040F4801543F48013A7EB0608101BD64671
:1005100008F2FD3873EB050002D308F1010801E091
:1005200092185B41B8F1000F03DA00200146BDE8E4
:10053000F08D00204FF48011064684460EE0171B14
:1005400073EB050705D3121B63EB050306434CEA67
:10055000010C49084FEA300092185B4150EA01074C
:10056000EDD152EA030012D082EA040083EA0501C9
:10057000084305D0101BAB4106D20122002306E040
:1005800000224FF0004302E06FF0010253101AEB1B
:1005900006004CEB085110EB0A0041EB0B01BDE8E3
:1005A000F04D00F097B800F0004230F000400AD063
:1005B000C10D01F56071C0F3160042EA0151C20895
:1005C00040071143704700200146704701F0004387
:1005D00030B421F0004150EA010206D00A0DA2F524
:1005E0006072C1F31301002A02DC30BC00207047A6
:1005F000440F44EAC104C100E01830BC00EBC25013
:1006000000F031B8202A04DB203A00FA02F1002081
:1006100070479140C2F1200320FA03F31943904040
:100620007047202A04DB203A21FA02F000217047AB
:1006300021FA02F3D040C2F120029140084319464A
:100640007047202A06DBCB17203A41FA02F043EA32
:10065000E07306E041FA02F3D040C2F1200291407B
:100660000843194670470029A8BF7047401C49003D
:1006700008BF20F00100704710B4B0FA80FC00FA07
:100680000CF050EA010404BF10BC704749B1CCF132
:10069000200421FA04F411FA0CF118BF01212143BE
:1006A0000843A3EB0C01CB1D4FEA00614FEA102079
:1006B00042BF002010BC704700EBC350104400291B
:1006C000A4BF10BC7047401C490008BF20F00100C7
:1006D00010BC704710B5141E73F1000408DA401CFA
:1006E00041F1000192185B411A4301D120F0010051
:1006F00010BD2DE9F04D92469B4611B1B1FA81F241
:1007000002E0B0FA80F220329046FFF77BFF044609
:100710000F4640EA0A0041EA0B0153465A46084395
:1007200013D0114653EA010019D0C8F140025046D7
:10073000FFF777FF05460E46504659464246FFF7FB
:1007400061FF084305D0012004E020463946BDE89A
:10075000F08D0020054346EAE0762C4337430A98A3
:100760006305E40AA0EB08000022FD0A44EA4754AE
:100770000A3002D500200146E9E701051019694158
:10078000DDE9084500196941BDE8F04DA2E72DE912
:10079000FE4FC3F30A5701F000450024C1F30A5687
:1007A000C3F31303C1F3130143F4801312EB020AE2
:1007B000A64641F48011009543EB030CA7F1010B11
:1007C00016E0B0EB0A0061EB0C01071E71F10007A7
:1007D00007DA4FF00008D0EB080085F0004568EB21
:1007E0000101171A73EB0107EBD3761E001849417C
:1007F0005E45F6DA50EA010209D0CDE900E50022B3
:1008000013460296FFF775FF03B0BDE8F08F204650
:100810000099F9E7064C074D06E0E06840F0010357
:1008200094E8070098471034AC42F6D3FFF7D8FCA1
:10083000E06A0008006B00080EB5C10F80EAE070A6
:100840000844CA07002140F233438DE80E000A46EF
:100850000B46FFF74EFF03B000BD0EB540F233412B
:1008600002910021CDE900110A460B46FFF741FF36
:1008700003B000BD70B5C1F30A5201F00045002479
:10088000C1F3130140F2FF3341F480119A4201DABF
:10089000002070BD40F233439A42A2F2334203DC9F
:1008A0005242FFF7BEFE00E090402C43F1D04042A0
:1008B00070BD000040F64010C2F2000000689FEDDD
:1008C0000B2A90ED090A40F29800B8EE401A9FED0D
:1008D000060AC2F2000021EE000A80EE020A80ED54
:1008E000001A80ED020A7047ACFFB33DA34C65428D
:1008F00010B54EF2180040F2980441F26F21CEF28A
:100900000000C2F20004C3F683210068A16240F631
:100910004011C2F200010968206291ED090A9FEDC1
:100920002E2AB8EE401A9FED2B0A84ED001A21EE14
:10093000000A80EE020A94ED012A30EE421A9FED81
:10094000272AB0EEC13AB4EE423AF1EE10FA84ED45
:10095000020A84ED030A84ED041A11DDB5EE401A93
:1009600094ED051AB7EE003ABFEE002AF1EE10FA48
:10097000C8BFB0EE423A33EE011A84ED051A01E029
:1009800094ED051A9FED162A9FED163A21EE021AF4
:1009900094ED0C2A31EE001A31EE422A82EE032A3F
:1009A00040F20801C2F2000191ED003A84ED010A23
:1009B000B8EEC30A84ED0B1A84ED061A84ED0C1A06
:1009C000606222EE000A84ED072A03F085FC84EDC4
:1009D0000D0A10BDACFFB33DA34C65427CD9A040CD
:1009E000DB0FC9406F12833A10B52DED048BB0EECA
:1009F000408AFFF77DFF40F2F000C2F2000080ED78
:100A0000000A38EE400A04F081FA40F22404C2F2EF
:100A1000000484ED000A04F0EFF940F2080040F20F
:100A20000401C2F20000C2F200010068096894EDFE
:100A3000008A484300EE100AB8EEC09AFFF73AFF6A
:100A400040F60830C2F2000090ED001A29EE000ACC
:100A500030EE410A10EE100AFFF7A5FD41EC100B35
:100A60009FED0F1B05F060FA51EC100BFFF7AEFD88
:100A70009FED0D0A01EE100A71EE000AB5EE401A64
:100A8000F1EE10FAA8BFF0EE410AB0EE480ABDEC54
:100A9000048BBDE8104005F033B800BF00BF00BFB5
:100AA00000000060FB211940DB0FC940002181617B
:100AB000016041608160C1600161017570470000A3
:100AC000FEE7000040F2AC20C2F2000000F07EBD64
:100AD00040F20C30C2F2000000F078BD40F26C3001
:100AE000C2F2000000F072BD40F2CC30C2F2000051
:100AF00000F06CBD704700004FF4005000F0DABF0A
:100B0000EFF3108072B600BFFEE7000000000000A7
:100B1000B0B52DED048B9FED2C8A40F2040440F219
:100B20000805C2F20004C2F20005B0EE080AF0EEB9
:100B3000480A2060296004F0E3FF40F6B83000F076
:100B400031FE9FED220AF0EE480A04F0D9FF286832
:100B50002168484300EE100AB8EEC09AFFF7AAFEDB
:100B600040F60834C2F2000494ED001A29EE000A9F
:100B700030EE410A10EE100AFFF715FD41EC100BA4
:100B80009FED0F1B05F0D0F951EC100BFFF71EFD88
:100B900000EE100A30EE081AB5EE400AF1EE10FA37
:100BA000A8BFB0EE401A84ED001AFFF7A1FE40F294
:100BB000F000C2F2000080ED000ABDEC048BB0BD75
:100BC00000000060FB211940DB0FC940000000005D
:100BD00040F20C00C2F2000080ED000A04F054B9AB
:100BE00070B582B090F85820012A03D1022108463E
:100BF00002B070BD002201920092026840F2080C1F
:100C0000C5F2000CB2F1A04F0CF1F80508D040F28B
:100C10000043C5F200039A423ED10CF59F6300E009
:100C20002B469B68946823435B0735D44FF4E063FD
:100C3000D1F800E0AA4208BF4FF44073B2F1A04FD0
:100C400008BF4FF440735CF80340BEF1000F24F47A
:100C500060442DD04D6890F838602C4340F2001568
:100C600042F48072C5F2000544EA4634AA424CF8C8
:100C7000034037D1DCF80020DCF800412243D207E2
:100C80003AD15CF80320896840F61F74A24341EA18
:100C90000E01114322E000BFC16D41F02001C1658A
:100CA0000121002280F85820084602B070BD00BF24
:100CB00042F4807140F20012C5F2000291424CF8F9
:100CC00003401BD1DCF80010DCF800211143C907F8
:100CD0001ED15CF8031040F61F7291434CF80310CC
:100CE0000021DEE7DCF80044DCF80055DCF80026E3
:100CF0002C432243D207C4D00021D2E7DCF80024E1
:100D0000DCF80065DCF8001632431143C907E0D077
:100D10000021C6E7F0B581B00022009290F858207B
:100D2000012A03D10221084601B0F0BD0123076862
:100D300080F85830BB685B0736D4D1E900531F26D2
:100D4000C3F3012407EB8404226B03F01F039E40CE
:100D5000B243C5F3846606FA03F31A432263BA6802
:100D6000BB6802F0040203F00803D21840F0BD8013
:100D70000A6807F114030426C2F34064D1F808E0BE
:100D800006EAD25C53F82440C2F304550722AA4075
:100D9000BEF1004F24EA02040CD143F80C401A685B
:100DA00042F000430EE000BFC16D41F02001C1657B
:100DB00001219DE10EFA05F2224343F80C201A6846
:100DC00022F000437B61D1E90435FC68042B5FD13C
:100DD0003A6E3A6E0B68C2F3846293FAA3F6C3F3D9
:100DE000846C6FF3DF43B6FA86F5002B2C464FF682
:100DF000FF7E08BF6446A242C0F2070E0CD13A6ED5
:100E000022F000423A660A6802EA0E03C2F3846CDA
:100E100092FAA2F2B2FA82F57A6E7A6E002BC2F3DF
:100E200084622C4608BF6446A2420CD17A6E22F03E
:100E300000427A660A6802EA0E03C2F3846C92FAF0
:100E4000A2F2B2FA82F5BA6EBA6E002BC2F38462D5
:100E50002C4608BF6446A2420CD1BA6E22F0004272
:100E6000BA660A6802EA0E03C2F3846C92FAA2F22E
:100E7000B2FA82F5FA6EFA6E002BC2F3846208BFF2
:100E80006546AA4231D1FA6E22F00042FA662CE0A1
:100E9000062202EA940205FA02FC0E6807F16005D8
:100EA00055F823404FF20002C0F2FF3206F0F84638
:100EB000224046EA0C06324342F0004245F8232025
:100EC0000A698B6955F8226026F08076334345F82D
:100ED00022300A690B7F55F82260012B26F000763C
:100EE00008BF06F1007645F82260BA68D20750D1F3
:100EF0000D68CA68D7F8B0602B466FF3DF4326EA67
:100F0000030C4FF6FF7602F01804C0F20706E64025
:100F100000242E40C4F27F0446EA0C06A242C7F821
:100F2000B06036D193B195FAA5F2B2FA82F20132ED
:100F300002F01E03092B02F01F0310D801229A4071
:100F400003EB430342EA035315E000BF012202EB27
:100F5000956202F01E030A2B02F01F03EED301225A
:100F600000269A4003EB4303CFF6206606EB0353BB
:100F70001A4342F00073C3F3406607EB86068A68A3
:100F80007569C3F3045307249C40A5439A402A4340
:100F900072610B680021C8F208010B4266D040F272
:100FA000003EC5F2000EAEF500710EF580648F4272
:100FB00004BF40F20034C5F200042146B7F1A04F4F
:100FC00004BF40F20031C5F200018D680022CCF26E
:100FD0002132934205F0E07C04D01022C9F2C00215
:100FE000934245D12A0261D440F20062C5F2000268
:100FF000974202D0B7F1A04F5AD18A6822F0E0722E
:1010000042EA0C0242F400028A6040F21801C2F285
:101010000001096842F663528909C0F23E52A1FB01
:101020000212910901EB41010C2202EB81010091B6
:101030000099002948D000990139009100990029B0
:1010400044D00099013900910099002940D00099BD
:1010500001390091009900293CD000990139009193
:10106000009900294FF00001E5D141E000213FE067
:101070000022CCF25272934208BF15F0807219D050
:101080000021CCF684318B424FF0000108BF15F4EB
:1010900080022DD1B7F1A04F1FD040F20011C5F250
:1010A00000018F4218D1002122E000BF00211FE083
:1010B00000211DE08A6822F0E07242EA0C0242F050
:1010C00080728A60002113E0002111E000210FE00E
:1010D00000210DE000210BE0A646DEF8081021F00B
:1010E000E07141EA0C0141F48001CEF808100021C2
:1010F000002280F85820084601B0F0BDB0B582B09B
:101100000446002001904CB1E06D58B12168886818
:10111000800012D48868C00019D54CE0012002B0CC
:10112000B0BD00BF204600F027F90020206684F8FB
:101130005800216888688000ECD588684FF6C07236
:10114000C5F6FF72104088608868C00033D44FF63F
:10115000C0728868C5F6FF7202F18052104000F13B
:101160008050886040F21800C2F20000006842F629
:1011700063528009C0F23E52A0FB02029009022293
:1011800002EB400001900198A8B100BF019801381E
:101190000190019878B1019801380190019850B1FF
:1011A000019801380190019828B101980138019007
:1011B00001980028EAD18868C00009D4E06D40F0A9
:1011C0001000E065206E40F001002066012000E084
:1011D00000208A68E36D02F0040203F01003D218C5
:1011E000E26D40F0818022F481720232E2658A6809
:1011F000D20729D140F2001341F48072C5F20003F6
:1012000040F2080C9A42C5F2000C73D1DCF80030B1
:10121000DCF800211A43D20716D10CF1F8024FF482
:10122000E063D4F804E0914208BF4FF44073B1F199
:10123000A04F08BF4FF440735CF8032022F47C12E7
:1012400042EA0E024CF80320627FE36B43EA42322B
:10125000D4E902C31A4394F8243042EA0C02012B69
:1012600042EA034207D1D4F828C00023CFF6FE7328
:1012700003EB4C431A43E36A33B103F47873D4F8B5
:1012800030C01A4342EA0C02D1F80CC044F2070302
:10129000CFF6F07303EA0C031A43CA600A69636B62
:1012A00022F040621A430A618A68120753D494F804
:1012B0003820237F520042EA833CCB6844F202028A
:1012C00023EA020242EA0C02CA6022690B69FAB1FF
:1012D00043F480330B61D1F8C0C043F6FF732CEAAE
:1012E00003031A431CE000BF42F010010120E16536
:1012F00002B0B0BDDCF800E4DCF80025DCF8003614
:1013000042EA0E021A43D2073FF487AF9CE700BFC0
:1013100023F480320A61D1F8C02043F6FF739A4368
:10132000C1F8C02094F840300A69012B10D140F276
:10133000FD7322EA030CD4E91132D4E913E543EA40
:101340000C031A4342EA0E022A4342F0010201E072
:1013500022F001020A6162690B6B012A23F00F027D
:1013600002D1236A013B1A430A63E16D012262F351
:101370000101E16502B0B0BDF0B59BB004460020AC
:101380001A90CDE91800CDE9160001A85421FEF706
:1013900077FF206840F20041C5F2000188426FD01B
:1013A00040F20011C5F20001884200F0A380B0F1C4
:1013B000A04F40F009814FF4004001904FF00050E1
:1013C000129001A801F030F8002818BFFFF798FB31
:1013D00040F2D001C2F200014A6841F24C00C4F26E
:1013E0000200531C4B6042B9016841F40051016096
:1013F000016801F4005100910099016816AD41F0B7
:10140000040101600168032701F0040100910099C3
:101410000168002641F0010101600068294600F0E2
:101420000100009000980820169040F20040C4F699
:10143000000000F580601797189600F047FB4FF00A
:1014400090402946CDE91677189600F03FFB40F210
:10145000AC250820C2F20005C4F20200052180225A
:101460004FF4007385E8430005F114004FF4006762
:101470004FF0200CC5E9036280E888109BE000BFB4
:101480004FF4803001904FF00040139001A800F01D
:10149000CBFF002818BFFFF733FB41F24C00C4F22A
:1014A00002000168002641F480410160016801F4F6
:1014B000804100910099016841F0020101600068DB
:1014C00016A900F002000090009802201690032058
:1014D000179040F20040C4F60000189600F0F6FAAB
:1014E0000820C4F2020040F26C352830C2F2000538
:1014F000252153E04FF4004001904FF0005012902E
:1015000001A800F091FF002818BFFFF7F9FA40F298
:10151000D001C2F200014A6841F24C00C4F202005C
:10152000531C4B6042B9016841F4005101600168ED
:1015300001F4005100910099016816AD41F00101DC
:1015400001600168032701F0010100910099016821
:10155000002641F0020101600068294600F0020007
:1015600000900098C02016904FF090401797189662
:1015700000F0ACFA0420CDE9160740F20040C4F6B2
:1015800000002946189600F0A1FA0820C4F20200D3
:1015900040F20C351430C2F20005242180224FF4B1
:1015A00000734FF4006728606960AE60EE602A61E6
:1015B0006B61AF61EE6128462E6200F05DF808B104
:1015C000FFF79EFA6565AC621BB0F0BDB0B5D0E91F
:1015D00010C30268DCF8001003F01F030424D2F8E3
:1015E00000E09C400C4218BF1EF0040522D10224EA
:1015F0009C400C4218BF1EF0020529D1D9400907B2
:1016000024D51EF0080108BFB0BD116821F00E01FD
:101610001160012101FA03F2CCF80420C16380F8C3
:101620002510416B002280F8242079B1BDE8B0403C
:10163000084700BF1168890603D4116821F004012E
:101640001160CCF80440016B0029EFD1B0BD00BFA0
:101650001168890606D4116821F00A011160012180
:1016600080F82510CCF80440C16A0022002980F8D7
:101670002420DBD1EAE7000000284FF0010100F050
:101680008E802DE9F04740F2000CC4F2020C036892
:101690004FF6F8320CF5816ECBF6FD72734538BF0C
:1016A00002F580624CF6CD441A44CCF6CC44A2FB41
:1016B00004286FF0070252FA83F2A2FB04290CF50A
:1016C00080656FF00304D0E90262D0F810A03CBF3F
:1016D0000025C4F2020504EA9804C0E9105402256A
:1016E00080F825501D6847F6F07725EA070737434D
:1016F0003A43476942EA0A0285693A43C7692A437D
:10170000056A3A432A431A600CF50262734538BFF2
:101710000CF50062A3180CF50862C264C9F3041248
:1017200040F6840C01FA02F2B6F5804FC4F2020CC6
:101730008364026506D1002141601960CCF8002065
:101740001EE000BF41685FFA81FE013903294FF0B6
:101750000001C3F800E0CCF8002011D8AEF101027E
:101760000CEB820747F87C1F02F01F01012202FAEE
:1017700001F30CF1BC023946CCF8C03002E000BFE6
:101780000022002300F1540C8CE80E0000210122FD
:10179000C16380F8252080F82410BDE8F047084692
:1017A00070470000B0B5044600F084FA054640F2E8
:1017B0001000C2F200004068611C18BF044400BF62
:1017C00000F078FA401BA042FAD3B0BD70B5D8B192
:1017D000044690F85C0028B9002084F85D0020469B
:1017E00000F01EF92068816921F01001816100F08C
:1017F00061FA054620688169090707D500F05AFAA1
:10180000401B0B28F6D312E0012070BD816941F026
:101810000101816100F04EFA054600BF2068816930
:10182000C9070DD100F046FA401B0B28F6D3206EF5
:10183000032140F001002066012084F85C1070BD97
:10184000826946F2004CC4F2000C42F0020260458C
:10185000826102D16268CCF80021227C8369012A6E
:1018600023F0400318BF40338361627C8369012AFF
:1018700023F4804308BF03F580438361A27C83691E
:10188000012A23F4805318BF03F5805383618269D2
:10189000D4E902E322F4407545EA0E0585618569C5
:1018A00025F0A4058561056925F0100505619BB14A
:1018B000012B0DD0022B09D08569032B45F0800543
:1018C0008561056945F01005056105D1202300E01B
:1018D000042385692B43836104F114052ACD226A10
:1018E0005E1E6FF0FF0303EB052545EA4665013AEE
:1018F0002A430025CFF6FF7505EB01411143BEF5E4
:10190000407FC16110D1D4E909E2D4E90B61013A09
:1019100003EB06231A436FF00F0303EB011111438E
:1019200005EB0E421143C160D4E90D13E26BD0F810
:10193000C0603243C0F8C0200CF580660CF58042D0
:10194000B04204BF4AF25072C4F200020CF50066C5
:10195000B04208BF02F5D4622264D0F8806026F459
:10196000F81646EA0141C0F8801002F17001616486
:10197000D0F8801021F0706141EA0361C0F8801056
:1019800002F1B000A06402F5C470E06402F51870C2
:10199000206502F51E70606502F55470002100BFDD
:1019A000C2E90011C2E90211C2E90411C2E906113B
:1019B000C2E90811C2E90A11C2E90C11C2E90E110B
:1019C000C2E91011C2E91211C2E91411C2E91611DB
:1019D000C2E91811C2E91A11C2E91C11C2E91E11AB
:1019E000C2E92011C2E92211C2E92411C2E926117B
:1019F000C2E92811C2E92A11C2E92C11C2E92E114B
:101A0000C2E93011C2E93211C2F8D010D432824298
:101A1000C6D300200121A065206684F85C1070BD4B
:101A200010B59AB00446684604305021FEF728FCF1
:101A3000206846F60001C4F20001884202D01AB0C4
:101A400010BD00BF4FF4805000904FF000700E901A
:101A5000684600F0E9FC002818BFFFF751F841F292
:101A60004C00C4F20200C16841F00071C160C1685D
:101A700001F0007115911599016841F002010160B2
:101A8000006815A900F00200159015984FF48250D7
:101A90001590022016900020CDE91700092019901A
:101AA00040F20040C4F6000000F010F81AB010BD7B
:101AB0007047000040F21441C4F201010A6802427A
:101AC00014BF08607047FFF7F3BF00002DE9F04F27
:101AD00084B08E4641F20042C4F60002DEF80040B7
:101AE00006219042019008BF0521002C009100F0D2
:101AF000D7800198002500F138424FEAB2230098C0
:101B0000012700264FF00008052B38BF184600902B
:101B1000CDF808E00EE000BFDEF8004008F1010853
:101B200034FA07F106F1020607F1010705F1040591
:101B300000F0B680A7F1010A012000FA0AF314EAC6
:101B40000309E9D0DEF804C00CF0030BABF101048B
:101B5000012C17D80198744681680322E468B240CA
:101B60009143B4402143816041684FEA480E994354
:101B7000CCF3001303FA0AF30446D043194361601F
:101B80000CE000BF0321B140019CC843BBF1030F2F
:101B9000B64603D1B6464FF0030B23E0E168029A44
:101BA00001409368BBF1020F03FA0EF341EA03010F
:101BB000E16017D16FF0030101EA5A01214405F0F9
:101BC0001C040F23D1F820C003FA04FB13692CEA8C
:101BD0000B0CA34043EA0C03019C0B62D2F804C037
:101BE0000CF0030B21680BFA0EF201401143216047
:101BF000DDF808E01CF4403F8ED041F26000C4F2F2
:101C00000200016840F2004C41F0010101600168EE
:101C1000C4F2010C01F00101039103992AF00301C0
:101C20004FF6084A6144CFF6FF7A05F00C030F2007
:101C300051F80A2000FA03F40098A24300FA03F3D3
:101C40001A4341F80A20DCF80810DEF8042041EAC3
:101C5000090340F20C40D40258BF21EA0903CCF832
:101C60000830C4F201000168940241EA090358BF38
:101C700021EA09030360DCF80410940341EA090334
:101C800058BF21EA0903CCF80430DCF80010D20375
:101C900041EA090358BF21EA0903CCF800303BE7C9
:101CA00004B0BDE8F08F00001823002A08BF2823E5
:101CB000C150704740F60030C2F200000068704723
:101CC00090F84120202A03D190F84020012A01D128
:101CD00002207047242280F841200268136823F014
:101CE00001031360136823F48053136013681943CE
:101CF0001160116841F001011160202180F841104C
:101D0000002180F8401008467047000090F84120FC
:101D1000202A03D190F84020012A01D102207047E7
:101D2000242280F841200268136823F00103136025
:101D3000136823F4706343EA01211160116841F0D4
:101D400001011160202180F84110002180F840102D
:101D500008467047002804BF0120704710B50446AC
:101D600090F8410028B9002084F84000204600F097
:101D700049F8242084F8410094E80910E2680168D9
:101D8000012A21F00101016023F070610161816885
:101D900021F40041816003D14CF40041816009E0ED
:101DA0004CF40441022A816004D1416841F400618D
:101DB00003E000BF416821F400614160416804F123
:101DC000100C41F0007141F400414160C16821F400
:101DD0000041C1609CE80E10114341EA0321C1603B
:101DE000216A41EA0C010160016841F001010160D2
:101DF00000202021606484F84110206384F84200B0
:101E000010BD000010B59CB0044600201B90CDE929
:101E10001900CDE9170002A85421FEF731FA206815
:101E200045F60001C4F20001884237D045F2004176
:101E3000C4F2000188425FD14020029002A800F065
:101E4000F3FA002818BFFEF75BFE41F24C04C4F21F
:101E50000204206817A940F002002060206800F00A
:101E60000200019001984FF4C07017901220189052
:101E70000020CDE9190004201B9040F20040C4F678
:101E80000000FFF723FEE06840F40010E060E06827
:101E900000F40010019001981CB010BD8020029049
:101EA00002A800F0C1FA002818BFFEF729FE41F28F
:101EB0004C04C4F20204206817A940F0010020601D
:101EC000206800F00100019001984FF440701790D5
:101ED000122018900020CDE9190004201B904FF02B
:101EE0009040FFF7F3FDE06840F48000E060E068B8
:101EF00000F48000019001981CB010BD40F2100069
:101F000040F60031C2F20000C2F2000140680A68E7
:101F1000104408607047000080B5032000F088F886
:101F2000002000F009F800281CBF012080BD00F04F
:101F300029F8002080BD000070B540F21006C2F202
:101F400000067168E1B1044640F21800C2F20000D8
:101F50004FF47A720068B2FBF1F1B0FBF1F001F0DE
:101F600019F80F2C4FF0010508D838B94FF0FF30A1
:101F700021460022002500F02FF83460284670BD6D
:101F8000012070BD82B041F25800C4F202008168A5
:101F900041F001018160816801F001010191019925
:101FA000016841F080510160006800F080500090AD
:101FB000009802B000F02EBA002848BF704700F029
:101FC0001F01012202FA01F14EF200124009CEF285
:101FD000000242F82010704710B54EF60C5CCEF2AD
:101FE000000CDCF80030C3F3022E8EF00704042C42
:101FF00028BF0424BEF103034FF0FF3E0EFA04F4A1
:1020000038BF0023A14399400EFA03F39A431143CA
:1020100000F00F02043A624409010C3200F16043FF
:10202000B0F1FF3FC8BF03F56442117010BD00005E
:102030004EF60C51CEF200010A684FF6FF031A402B
:1020400060F30A2242F0806040F0FD700860704743
:1020500001220168C0F8D022002280F8C822B1F81D
:10206000540040F00100A1F85400B1F8540040F0D1
:1020700002020020A1F8542070470000F0B581B0A2
:10208000002800F00381044690F8910228B900204E
:1020900084F89002204600F0FDF8032084F89102B5
:1020A000206803F08BFC2179002900F0DD80A1F18C
:1020B000010E01F0030CBEF1030F4FF0000334D307
:1020C00001F0FC0004F1A002012600256F1C02F8BB
:1020D000687CAF1C02F8905C02F8407CEF1C043571
:1020E00002F88F6C02F88D3C42E9203342F8783CCC
:1020F00002F8676C02F8653C42E9163342F8503C3E
:1021000002F83F6C02F83D3C42E90C3342F8283CAF
:1021100002F8176C02F8187C02F8153C42E9023309
:1021200042F8A03B8542D1D12B46BCF1000F29D00B
:1021300003EB830004EBC00501220020BCF1010F7A
:102140006A742B74E874C5E90800A8621AD05D1C93
:1021500005EB850604EBC606BCF1020F72743574FC
:10216000F074C6E90800B0620CD0981C00EB800245
:1021700004EBC2020123107400205374D074C2E92E
:102180000800906200296FD0BEF1030F4FF00002EB
:1021900033D301F0FC0004F5F07100235F1C01F85B
:1021A000687C9F1C01F8903C01F8407CDF1C0433E4
:1021B00001F88F2C01F88D2C41E9202241F8782C70
:1021C00001F8672C01F8652C41E9162241F8502CE2
:1021D00001F83F2C01F83D2C41E90C2241F8282C54
:1021E00001F8172C01F8187C01F8152C41E902229E
:1021F00041F8A02B8342D1D11A46BCF1000F33D055
:1022000002EB820004EBC0010020BCF1010F81F859
:10221000510181F8502181F85301C1E95800C1F8FA
:10222000680121D0511C01EB810304EBC303BCF115
:10223000020F83F8510183F8501183F85301C3E969
:102240005800C3F868010FD0901C00EB800104EB2C
:10225000C101002281F8512181F8500181F85321F8
:10226000C1E95822C1F8682194E8070003F098FBFF
:1022700000200121207384F89112A17A012903D151
:102280002046FFF7E5FE002001B0F0BD012001B0BF
:10229000F0BD000010B596B0044601A804305021EE
:1022A000FDF7EEFF206845F60041C4F200018842C8
:1022B00002D016B010BD00BF4FF40050019001A82D
:1022C00000F0B2F8002818BFFEF71AFC41F25800DF
:1022D000C4F20200016841F400010160006800F4EA
:1022E00000000090009816B010BD0000B0F5007F0F
:1022F00042D0002840F0808047F21400C4F2000071
:1023000050F8141CC26E01F4C06122F48072B1F561
:10231000806FC2662ED150F8141C012262F34A214C
:1023200040F8141C40F21801C2F200010968322280
:1023300051434DF68362C4F21B32A1FB0212910C91
:102340000268520511D54A1C0FD0026852050CD5FF
:1023500059B10268520508D5012906D00268520514
:1023600003D50229A1F10401EAD10068400544BF68
:10237000032070470020704747F21400C4F20000A9
:1023800050F8141CC26E01F4C06142F48072B1F5C1
:10239000806FC266EED150F8141C012262F34A210C
:1023A00040F8141C40F21801C2F200010968322200
:1023B00051434DF68362C4F21B32A1FB0212910C11
:1023C0000268520511D54A1C0FD0026852050CD57F
:1023D00059B10268520508D5012906D00268520594
:1023E00003D50229A1F10401EAD10068400544BFE8
:1023F00003207047BEE700BF47F21400C4F200009C
:1024000050F8141C022262F34A2140F8141C0020E8
:102410007047000047F20800C4F20000016841F470
:1024200080410160704700002DE9F04182B0044610
:10243000807841F288060007C4F2020602D4002028
:102440002FE000BF56F8300C10F080580BD156F832
:10245000300C40F0805046F8300C56F8300C00F04C
:1024600080500190019847F20007C4F200073868D5
:1024700040F480703860FFF71DFC05463868C005E1
:1024800000F10C81FFF716FC401B0228F6D903204F
:10249000B8F1000F05D156F8301C21F0805146F8F4
:1024A000301C2168CA0717D18A071DD44A0723D4D4
:1024B0000A0729D4CA062FD48A0635D44A063BD443
:1024C0000A0641D4CA0547D48A034DD48A0553D499
:1024D0004A0559D467E000BF3268636822F00302FE
:1024E0001A4332608A07E1D53268A36822F00C02F1
:1024F0001A4332604A07DBD53268E36822F03002C3
:102500001A4332600A07D5D53268236922F0C00227
:102510001A433260CA06CFD53268636922F440722A
:102520001A4332608A06C9D53268A36922F4406230
:102530001A4332604A06C3D53268E36922F4405236
:102540001A4332600A06BDD53268236A22F440423B
:102550001A433260CA05B7D53268636A22F4403242
:102560001A4332608A03B1D57269A36A22F003026A
:102570001A4372618A05ABD53268E36A22F44022BD
:102580001A4332604A050ED53268236B22F440129A
:102590001A43B3F5801F326005D156F87C2C42F403
:1025A000801246F87C2C0A050ED53268636B22F443
:1025B00040021A43B3F5800F326005D156F87C2CE7
:1025C00042F4801246F87C2CCA040ED53268A36B04
:1025D00022F040721A43B3F1807F326005D156F881
:1025E0007C2C42F4801246F87C2C8A040ED532688A
:1025F000E36B22F040621A43B3F1006F326005D101
:1026000056F87C2C42F4801246F87C2C4A040ED5F5
:102610003268236C22F040621A43B3F1006F3260DB
:1026200005D156F87C2C42F4801246F87C2C0A0422
:102630000ED53268636C22F040521A43B3F1805FCA
:10264000326005D156F87C2C42F4803246F87C2C5E
:10265000CA030ED53268A36C22F040421A43B3F18C
:10266000804F326005D156F87C2C42F4803246F817
:102670007C2C49030ED57169E26C21F440111143A1
:10268000B2F5001F716105D156F87C1C41F4801130
:1026900046F87C1C02B0BDE8F08100BFB06810F4C1
:1026A000407010D0216D88420BD0B068B16820F422
:1026B000407041F48031B160B16821F48031B16083
:1026C000B060C0070CD1B068216D20F440700843A1
:1026D000B0600020B8F1000F7FF4E3AEDBE600BF8E
:1026E000FFF7E8FA054641F2883700BFB068800777
:1026F000E9D4FFF7DFFA401BB842F7D9C7E600007C
:102700002DE9F04700286DD042F2000AC4F2020A17
:102710000446DAF800000D4600F00F0088420CD2A3
:10272000DAF8000020F00F002843CAF80000DAF8B9
:10273000000000F00F00A84254D1216841F20808BF
:10274000C807C4F2020803D1880740F1D880BDE071
:10275000606802283AD0032840D158F8082C92012A
:1027600040D5D8F80420D8F8043042F2004702F0EF
:102770000302C3F30313C0F2F4070133032A04BFB7
:1027800043F20067C0F26E17D8F80420B7FBF3F3EA
:10279000D8F80470C2F306225A43C7F341630227F4
:1027A00007EB4303B2FBF3F24BF20043C0F2C44326
:1027B0009A4261D9D8F8002012F0F00F51D0890761
:1027C0005AD5A168002957D14BE000BF58F8081C22
:1027D00089035CBF0120BDE8F08707E058F8081CBA
:1027E000490503D40120BDE8F08700BFD8F80010E8
:1027F00001F00C0104293FD0D8F8001001F00C01C1
:10280000082939D0D8F8001001F00C010C2933D177
:10281000D8F80410D8F8042042F2004301F0030174
:10282000C2F30312C0F2F4030132032904BF43F2DE
:102830000063C0F26E13D8F80410B3FBF2F2D8F8BC
:102840000430C1F306215143C3F34162022303EB79
:102850004202B1FBF2F14BF20042C0F2C44291429B
:102860000AD9D8F80010082262F307114FF00109C5
:10287000C8F8001002E000BF4FF00009D8F80010BF
:1028800021F003010843C8F80000FFF713FA0646D9
:1028900041F28837D8F80000616800F00C00B0EB16
:1028A000810F07D0FFF706FA801BB842F2D9032048
:1028B000BDE8F0872168880708D4B9F1000F1ED061
:1028C000D8F8000020F0F00017E000BF480705D559
:1028D000D8F8000040F4E060C8F80000080706D50A
:1028E000D8F80000072262F30D20C8F80000D8F8DD
:1028F0000000A26820F0F0001043C8F80000DAF8E9
:10290000000000F00F00A8421BD9DAF8000020F008
:102910000F002843CAF80000FFF7CCF9064641F241
:10292000883700BFDAF8000000F00F00A84207D097
:10293000FFF7C0F9801BB842F4D90320BDE8F08747
:102940002168480707D5D8F80000E26820F4E06065
:102950001043C8F80000080708D5D8F8000021691E
:1029600020F4605040EAC100C8F80000D8F8000028
:1029700042F20041C0F2F40100F00C0004280846C5
:102980002DD0D8F8000000F00C00082843F20060B9
:10299000C0F26E1023D0D8F8002002F00C020C2AEE
:1029A0001CD1D8F80420D8F8043002F00302C3F395
:1029B00003130133032A08BF0146D8F80400B1FB12
:1029C000F3F1D8F80420C0F306204843C2F3416174
:1029D000022202EB4101B0FBF1F000E00020D8F848
:1029E000001046F69022C1F30311C0F60002515CBC
:1029F00040F2180201F01F0120FA01F140F210002C
:102A0000C2F200000068C2F200021160BDE8F047A7
:102A1000FFF792BA40F2180041F20801C2F200003A
:102A2000C4F202010068096846F6A022C1F302213F
:102A3000C0F60002515C01F01F01C8407047000061
:102A400040F2180041F20801C2F20000C4F2020193
:102A50000068096846F6A022C1F3C221C0F6000250
:102A6000515C01F01F01C8407047000041F20C01A9
:102A7000C4F2020151F8040C42F20042C0F2F40226
:102A800000F00C000428104608BF704751F8040CF1
:102A900000F00C00082843F20060C0F26E1021D054
:102AA00051F8043C03F00C030C2B1CBF00207047B2
:102AB000D1F800C00B680CF0030CC3F3031301330F
:102AC000BCF1030F08BF02460868B2FBF3F20968C5
:102AD000C0F306205043C1F34161022202EB4101E1
:102AE000B0FBF1F0704700002DE9F04182B0002802
:102AF00000F006810446007841F20006C007C4F2E7
:102B0000020655D12078800774D42078000700F1A0
:102B100097802078400700F1B7802078800600F188
:102B20000781E569002D00F03082B06800F00C00EC
:102B30000C2840F05981012D00F0E280F068216AF4
:102B400000F003028A4240F0DB80626A6FF00F03FC
:102B500000F0F00103EB0212914240F0D180A16A33
:102B600000F4FE42B2EB012F40F0CA80E16A00F0AF
:102B70007842B2EBC16F40F0C380226B0023CFF6E6
:102B8000E07303EB025200F4C0016FF314029142B0
:102B900040F0B680616B4FF07E4202EB016100F0C5
:102BA000C06001F07E41884240F0AA80EDE100BFA4
:102BB000B06800F00C01F06808295BD0032281F0B6
:102BC0000C0122EA00000844B0FA80F0400951D11B
:102BD0006068B0F5803F07D0B0F5A02F40F0DA80F4
:102BE000306840F480203060306840F480303060DD
:102BF000DBE000BFB068F16800F00C00042869D089
:102C000001F0030180F00C0081F002010844B0FAE9
:102C100080F040095ED1E1683068002900F0D28080
:102C200040F480703060FFF745F805463068400595
:102C300000F1FC80FFF73EF8401B0228F6D92EE198
:102C40006169D6F89400002900F0908040F00100FE
:102C5000C6F89400FFF72EF8054600BFD6F894009A
:102C600080073FF556AFFFF725F8401B0228F5D93E
:102C700015E100BF306880037FF544AF606800282D
:102C80007FF440AF3CE000BFB06D10F0805808D139
:102C9000B06D40F08050B065B06D00F08050019094
:102CA000019847F20007C4F200073868C0052BD42A
:102CB000386840F480703860FEF7FCFF054600BFBE
:102CC0003868C00520D4FEF7F5FF401B0228F7D96D
:102CD000E5E000BF3068400501D5E06880B170686C
:102CE000216920F0FE4040EA0160706040F210006F
:102CF000C2F200000068FFF71FF900283FF405AF9B
:102D0000012002B0BDE8F081A068012808D00528A4
:102D100040F0AA80D6F8900040F00400C6F8900079
:102D2000D6F8900040F00100C6F89000A9E000BF7E
:102D3000A169D6F89800002900F0808040F00100D9
:102D4000C6F89800FEF7B6FF054600BFD6F8980013
:102D500080073FF5E6AEFEF7ADFF401B02284FF0BF
:102D60000300F3D902B0BDE8F08100BF20F00100FC
:102D7000C6F89400FEF79EFF054600BFD6F8940003
:102D800080077FF5C6AEFEF795FF401B0228F5D9F8
:102D900085E000BF3168002821F48031316031685E
:102DA00021F48021316000F07F80FEF783FF05462B
:102DB000306880033FF5A6AEFEF77CFF401B642819
:102DC000F6D96CE020F480703060FEF773FF0546A2
:102DD000306840057FF599AEFEF76CFF401B022876
:102DE0004FF00300F4D9BDE7306820F08070306008
:102DF000FEF760FF022D05460CD100BF3068800150
:102E000040F17E80FEF756FF401B02284FF0030082
:102E1000F4D9A7E73068800140F1B080FEF74AFF9F
:102E2000401B02284FF00300F4D99BE7706821692A
:102E300020F0FE4040EA0160706066E620F001008C
:102E4000C6F89800FEF736FF054600BFD6F8980092
:102E500080077FF566AEFEF72DFF401B02284FF07E
:102E60000300F3D97EE700BFD6F8901021F00101EE
:102E7000C6F89010D6F8901021F00401C6F8901012
:102E800010B3FEF717FF054641F28837D6F89000D9
:102E900080072BD4FEF70EFF401BB842F6D9032063
:102EA00002B0BDE8F08100BFFEF704FF054600BF99
:102EB000306880037FF526AEFEF7FCFE401B6428D9
:102EC0004FF00300F4D94DE7FEF7F4FE054641F25A
:102ED000883700BFD6F89000800707D5FEF7EAFED6
:102EE000401BB8424FF00300F4D93BE7B8F1000FA4
:102EF0007FF413AEB06D20F08050B0650DE600BFDA
:102F0000F06848F20C01C0F29F1104F1200700EABA
:102F1000010C8ECF6FF00F00D4E90C5400EB0210BF
:102F20000022CFF6E07241EA0C0102EB05520843A1
:102F30006FF314024FF07E4540EA032005EB046571
:102F4000104305F07E4540EAC7602843F0603068D2
:102F500040F080703060F06840F08070F060FEF704
:102F6000A9FE0446306880010FD4FEF7A3FE001BC3
:102F700002284FF00300F5D9F4E600BFF0684FF6E1
:102F8000FC71CFF6EE610840F060002002B0BDE8B1
:102F9000F0810000411E0020B0EB116F1CBF01202A
:102FA00070474EF21002CEF2000251604EF62351ED
:102FB000CEF20001F0230B70072190601160704782
:102FC000B0B590F83C20012A04BF0220B0BDD1E981
:102FD0000232D1E900CE22F47C5223F4705343EA4A
:102FE000020448F2FF73CEF6F0730EEA03022243A6
:102FF00003F5006404EA0C0442EA040C0C6903F5CE
:10300000C05222404C6942EA0C02224303F560544C
:1030100022400C6B03F5F04323401A438B6940F2C6
:10302000000CCC69CEF6FF7C0CEA034C144302681A
:1030300042F60043C4F201039A4244EA0C030BD067
:1030400045F20004C4F20104A24205D043F2004458
:10305000C4F20104A24217D14FF6FF74CDF60F441B
:1030600003EA040ED1E9084CD1E90A310025CDF676
:10307000F04505EA035343EA0E0324F008552B43B9
:103080002CF000552B430B430021536480F83C1077
:103090000846B0BDB0B5044690F83C00012804BF16
:1030A0000220B0BD0D462068D1E90021AB684FF089
:1030B000010C84F83CC002F037F82068816DD5E936
:1030C000042321F0E7012D7B19431143012D08BF93
:1030D00041F0200141F001018165002084F83C00AD
:1030E000B0BD00000168886D40F0010200208A65D3
:1030F0007047000070B590F83C20012A4FF00202A2
:1031000065D080F83D20026842F600435468D2F84A
:1031100008C0C4F2010345F2000E9A42C4F2010E47
:1031200018BF72452CD14D6824F470042C434FF61F
:103130008F75CFF6FF550E682C4042F6FF35C4F26E
:1031400001053443AA4254600EDC40F2FF73C4F21E
:1031500000039A421CDCB2F1804F2DD040F20043B4
:10316000C4F2000326E000BF43F6FF74C4F201047A
:10317000A24219DC9A421FD043F2004318E000BF7C
:1031800043F20045C4F20105AA42CCD0CFE700BF0C
:1031900040F60003C4F200039A420DD040F600430B
:1031A000C4F2000306E000BF724505D044F20003FC
:1031B000C4F201039A4204D189682CF080031943B8
:1031C00091600121002280F83D1080F83C201046DB
:1031D00070BD000041B1082910D0042914BF00F1CE
:1031E000470200F145020BE090F84420012A1CBF81
:1031F00001207047022280F8442013E000F14602CB
:103200001278012A1CBF012070470222082907D02A
:10321000042914BF80F8472080F8452002E000BF51
:1032200080F84620026801F00F000421136A01FAB9
:1032300000F023EA00011162116A08431062506C29
:1032400042F6FF31C4F2010140F400408A4250646A
:103250000EDC40F2FF70C4F20000824218DCB2F1D2
:10326000804F2DD040F20040C4F2000026E000BFA5
:1032700043F6FF70C4F20100824215DC42F60040C2
:10328000C4F2010082421BD043F2004014E000BFB0
:1032900040F60000C4F20000824211D040F6004027
:1032A000C4F200000AE000BF45F20000C4F20100D1
:1032B000824205D044F20000C4F2010082420CD1E7
:1032C00090680721C0F20101014006294FF000007B
:1032D00008D0B1F5803F08BF7047106840F001008A
:1032E0001060002070470000002804BF01207047D4
:1032F00010B5044690F83D0028B9002084F83C0041
:10330000204600F023F8022084F83D002068211DAB
:1033100001F064FE012084F8480084F83E0084F83F
:103320003F0084F8400084F8410084F8420084F8AB
:10333000430084F8440084F8450084F8460084F88B
:10334000470084F83D00002010BD000082B00068F6
:1033500043F20041C4F20101884215D042F6004117
:10336000C4F2010188421CD141F26000C4F20200A3
:10337000016841F400610160006800F400600190A0
:10338000019802B0704700BF41F26000C4F2020031
:10339000016841F400510160006800F400500090A1
:1033A000009802B07047000080B590F83C20012AD8
:1033B0004FF0020200F0988080F83D20D0F800C065
:1033C0008822DCF80830CFF6CE721A40CCF80820FC
:1033D0000B68B3F5005F0DDA3F2B21DD5F2B33DD8A
:1033E000602B00F08380702B00F0A280B3F5805F2B
:1033F00073D0E7E02F22C0F21002934218DD4F2174
:10340000C0F210018B4247DD5021C0F210018B4207
:1034100057D06021C0F210018B4252D070214BE096
:103420001F2B41DC002B4CD0102B4AD0CAE000BF30
:10343000B3F1101F3EDAB3F5005F00F08D80B3F5F5
:10344000801F3ED0BEE000BF402B00F09980502B83
:1034500040F0B880D1F804E0C968DCF82030DCF82E
:10346000202022F00102CCF82020DCF8182022F0E5
:10347000F00242EA011123F00A0242EA0E02CCF8FD
:103480001810CCF82020DCF808104FF68872CFF620
:10349000CF72114057311EE03021C0F210018B4233
:1034A0000FD0402108E000BF202B0AD0302B08D0DD
:1034B00088E000BF05D02021C0F210018B4240F00F
:1034C0008180DCF808104FF68872CFF6CF72114079
:1034D000194341F00701CCF808100022012180F8BF
:1034E0003D10002180F83C10104680BDD1F804E06A
:1034F000C968DCF82030DCF8202022F01002CCF87B
:103500002020DCF8182022F4704242EA013123F036
:10351000A00242EA0E12CCF81810CCF82020DCF8F9
:1035200008104FF68872CFF6CF7211406731D2E79C
:10353000D1E901E3C968DCF8082043EA0E0322F46C
:103540007F4243EA01211143CCF80810DCF808104F
:1035500041F07701BFE700BFD1E901E3C968DCF8BA
:10356000082043EA0E0322F47F4243EA012111437B
:10357000CCF80810DCF8081041F48041ABE700BF3C
:10358000D1F804E0C968DCF82030DCF8202022F013
:103590000102CCF82020DCF8182022F0F00242EAE8
:1035A000011123F00A0242EA0E02CCF81810CCF8FE
:1035B0002020DCF808104FF68872CFF6CF72114049
:1035C000473188E7012289E7002804BF01207047BE
:1035D0002DE9F047044690F83D000D4628B900203B
:1035E00084F83C00204600F04BF8022084F83D00AF
:1035F00020684BF6F8728168CFF6FE721140816048
:10360000211D01F0EBFC20684FF6FF78816882698C
:10361000D0F820C0D5E9003ED5E9026A43EA0109A5
:10362000AB6922EA080246EA03234FF6FC46B3439D
:10363000D5E9076742EA0A0229691A4342EA0622E3
:1036400042EA01112CF0AA026B6942EA0E0241EA39
:10365000073142EA0312C0F808908161026201203A
:1036600084F8480084F83E0084F83F0084F8440061
:1036700084F8450084F83D000020BDE8F087000094
:103680002DE9F04186B0006840F20041C4F200012B
:1036900000268842CDE90466CDE90266019649D04C
:1036A000B0F1804F40F0958041F24C00C4F202002E
:1036B000C1680DF1040841F00101C160C168022632
:1036C00001F00101009100990168002741F001011A
:1036D000016001684FF0904401F0010100910099F0
:1036E000016841F0020101600068414600F00200FB
:1036F00000900098202001904FF090400296CDE974
:1037000003770596FEF7E2F94FF4816001A9C1C184
:1037100040F200400125C4F600004146049705959B
:10372000FEF7D4F94FF4004001A9C1C1CDE90475F9
:103730004BE000BF41F24C00C4F20200C16801AC92
:1037400041F00201C160C168022701F0020100914D
:103750000099016841F001010160016801F0010177
:1037600000910099016841F002010160016801F0D7
:10377000020100910099016841F0080101600068B0
:10378000214600F0080000900098102001904FF0B2
:103790009040CDE90276CDE90467FEF797F940F253
:1037A00000451120C4F60005CDE901072846214651
:1037B000CDE903660597FEF789F9042005F5006455
:1037C000CDE90107CDE90366059701A92046FEF77B
:1037D0007DF906B0BDE8F08180B590F83E2090F804
:1037E0003F3090F844E090F845C004290AD0B9B9B8
:1037F000012A4FF0010208BFBEF1010F34D010467C
:1038000080BD00BF012B4FF0010208BFBCF1010FCA
:10381000F5D1022180F83F1080F8451000681EE0C5
:10382000012A4FF0010208BF012BE8D1BEF1010FC0
:10383000E5D1BCF1010FE2D1022280F83E2080F8F0
:103840003F2080F8442080F8452091B10068016A4B
:1038500021F001010162016A41F0010101621021C0
:103860006FF0100209E000BF022180F83E1080F8DE
:103870004410006801216FF00102036A1A400262DD
:10388000026A114301620168002241F001010160F6
:10389000104680BDF0B587B0006843F20042C4F224
:1038A000010200219042CDE90511CDE903110291F9
:1038B0003ED042F60041C4F20101884258D141F2A3
:1038C0004C00C4F20200016840F2004441F00401DF
:1038D00001600168C4F6000401F00401019101993E
:1038E000016802AD41F0020101600068022600F0AB
:1038F00002000190019807200290002704F58060E3
:1039000029460396CDE904770696FEF7DFF84FF4D3
:10391000C04002A9C1C1062006902046294605974D
:10392000FEF7D4F84FF4004002A9C1C1059719E091
:1039300041F24C00C4F20200026842F0040202604C
:10394000006800F00400019001984FF4EE500290DE
:103950000220CDE9030140F20040C4F6000000F56A
:10396000806405910420069002A92046FEF7AEF877
:1039700007B0F0BD2DE9F04190F83C30012B04BFB9
:103980000220BDE8F0814FEAB202052A00F2A281CE
:10399000DFE812F006005400AE0008016201A80141
:1039A00003681D6A1A6AA3F1804622F001021A62B6
:1039B0001A46D3F8048052F818EF8F68A6F59636A9
:1039C000D1F800C025F002054FEAB626092E45EAD7
:1039D00007050BD80127B74040F2E52427421FBF57
:1039E000CC6825F00C0524F004042543092E0CD8DE
:1039F0000124B44040F2E52634421FBF28F440744D
:103A0000D1E90567344344EA07084FF68C74CFF6D2
:103A1000FE740EEA040747EA0C07C3F804809F61AE
:103A20004F6809695F631D629F6947F008079F61DE
:103A30009F6927F004079F6192E100BF036842F687
:103A400000461D6A1A6AC4F2010622F010021A62C8
:103A50001A465C6852F818EFB3428E68D1F800C07D
:103A600025F0200545EA06150BD045F20006C4F204
:103A70000106B34205D043F20046C4F20106B34248
:103A800007D1CE686FF0400725F0C00507EA06169B
:103A90003543A3F18046A6F596364FEAB626092EA1
:103AA0000ED8012707FA06F640F2E5273E421FBF6F
:103AB00024F44064D1E9056744EA860444EA8704B3
:103AC00048F6FF46CFF6FF660EEA060747EA0C27E0
:103AD0005C609F614F6809699F631D629F6947F43D
:103AE00000679F619F6927F480679F6137E100BF8E
:103AF000036842F600461D6A1A6AC4F2010622F4FF
:103B000080721A621A465C6852F81CCFB3428E6803
:103B1000D1F800E025F4007545EA06250BD045F202
:103B20000006C4F20106B34205D043F20046C4F2D7
:103B30000106B34207D1CE6840F2FF47360225F4B2
:103B40004065BE433543A3F18046A6F596364FEA5D
:103B5000B626092E0ED8012707FA06F640F2E52709
:103B60003E421FBF24F44054D1E9056744EA0614DD
:103B700044EA07144FF68C76CFF6FE760CEA060779
:103B800047EA0E075C60DF614F680969DF631D6209
:103B9000DF6947F00807DF61DF6927F00407DF61AD
:103BA000DEE000BF036842F600461D6A1A6AC4F2EE
:103BB000010622F480521A621A465C6852F81CCF41
:103BC000B3428E68D1F800E025F4005545EA063589
:103BD0000BD045F20006C4F20106B34205D043F211
:103BE0000046C4F20106B34207D1CE6844F6FF771F
:103BF000360325F44045BE433543A3F18046A6F580
:103C000096364FEAB626092E0ED8012707FA06F691
:103C100040F2E5273E421FBF24F44044D1E9056746
:103C200044EA861444EA871448F6FF46CFF6FF6656
:103C30000CEA060747EA0E275C60DF614F680969F6
:103C40001F641D62DF6947F40067DF61DF6927F4E5
:103C50008067DF6183E000BF0368D3F820C01A6A81
:103C6000A3F1804722F480321A621A46A7F59637EC
:103C70005D6852F8508FD1F800E08E684FEAB727A0
:103C8000092F0AD80124BC4040F2E5273C421EBF60
:103C90004C6925F4803545EA04252CF4003747EAC1
:103CA00006474FF68C76CFF6FE76033606EA080610
:103CB00046EA0E065D601E654E6809699E641F62D5
:103CC0001F6D47F008071F651F6D27F004071F656C
:103CD00046E000BF0121002280F83C200846BDE8F4
:103CE000F08100BF0368D3F820C01A6AA3F18047AF
:103CF00022F480121A621A46A7F596375D6852F8C8
:103D0000508FD1F800E08E684FEAB727092F0AD804
:103D10000124BC4040F2E5273C421EBF4C6925F41B
:103D2000802545EA84252CF4001747EA065748F613
:103D3000FF46CFF6FF6606F5407606EA080646EA35
:103D40000E265D601E654E680969DE641F621F6D88
:103D500047F400671F651F6D27F480671F65090220
:103D60001368194311600021002280F83C200846A6
:103D7000BDE8F081002804BF0120704710B504465B
:103D800090F83D0028B9002084F83C00204600F05F
:103D900023F8022084F83D002068211D01F01EF95F
:103DA000012084F8480084F83E0084F83F0084F83D
:103DB000400084F8410084F8420084F8430084F80D
:103DC000440084F8450084F8460084F8470084F8ED
:103DD0003D00002010BD00007047000061B10A1FC7
:103DE0004FEAB202032A15D8DFE802F00218101CCD
:103DF00000F13F0318E000BF90F83E20012A1CBFED
:103E000001207047022280F83E202CE000F141039F
:103E10000AE000BF00F1430306E000BF00F14003E9
:103E200002E000BF00F142031B78012B1CBF012000
:103E30007047032A0CD8DFE802F0030F071300BF16
:103E4000022280F83F200EE0022280F841200AE0A2
:103E5000022280F8432006E0022280F8402002E09F
:103E6000022280F84220026801F01F010120136A3B
:103E700000FA01F18B431362136A0B43A2F18041F4
:103E8000A1F596314FEAB1210729136258D888402D
:103E900010F0E50F54D0506C42F6FF31C4F201012E
:103EA00040F400408A4250640EDC40F2FF70C4F2DD
:103EB0000000824218DCB2F1804F2DD040F2004069
:103EC000C4F2000026E000BF43F6FF70C4F2010018
:103ED000824215DC42F60040C4F2010082421BD04F
:103EE00043F2004014E000BF40F60000C4F20000BE
:103EF000824211D040F60040C4F200000AE000BF48
:103F000045F20000C4F20100824205D044F20000F4
:103F1000C4F2010082420CD190680721C0F2010175
:103F2000014006294FF0000008D0B1F5803F08BFDE
:103F30007047106840F0010010600020704700BF1B
:103F400042F6FF30C4F201008242AEDD43F6FF705C
:103F5000C4F201008242BDDD44F20000C4F201005F
:103F60008242D9D045F20000C4F201008242E0D181
:103F7000506C40F400405064CEE7000090F884108C
:103F8000012904BF022070472421C0F8881002686C
:103F90001168136823F00103136021F0005300211E
:103FA000416613602022C0F8882080F884100846FB
:103FB00070470000B0B590F88420012A04BF0220A9
:103FC000B0BD2422C0F888200268D0F864E0D2F89E
:103FD00000C01368BEF1000F23F001031360936863
:103FE00023F0606341EA0301916019D093689168FE
:103FF00046F6D02E490FC0F6000E46F6D8251EF81C
:104000000140C0F60005695CC3F34263E400B4FB01
:10401000F1F11EF80340EB5CE500B5FBF3F301E0C2
:1040200001210123A0F86A102021A0F86830C2F80D
:1040300000C0C0F88810002180F884100846B0BD88
:10404000B0B590F88420012A04BF0220B0BD24221C
:10405000C0F888200268D0F864E0D2F800C0136885
:10406000BEF1000F23F001031360936823F0604357
:1040700041EA0301916019D09368916846F6D02E09
:10408000490FC0F6000E46F6D8251EF80140C0F6CE
:104090000005695CC3F34263E400B4FBF1F11EF870
:1040A0000340EB5CE500B5FBF3F301E001210123E4
:1040B000A0F86A102021A0F86830C2F800C0C0F84B
:1040C0008810002180F884100846B0BD10B5D8B122
:1040D0000446D0F8880028B9002084F884002046DF
:1040E00000F026F82420C4F888002068A16A02683D
:1040F00022F00102026011B1204601F021F82046B1
:1041000001F04AF9012801D1012010BD2168486859
:1041100020F490404860886820F02A008860086891
:1041200040F0010220460A60BDE8104001F07CB872
:1041300070B59CB0044600201B90CDE91900CDE974
:10414000170002A85421FCF79BF8206844F60001F0
:10415000C4F20001884239D043F60001C4F20101E3
:10416000884265D048F20001C4F2000188425DD166
:104170002020029002A8FEF757F9002818BFFCF78C
:10418000BFFC41F24C00C4F20200016941F00101A0
:104190000161016901F0010101910199016841F09A
:1041A000010101600068022100F001000190019806
:1041B0000C20189100211790CDE919111B9017A917
:1041C0004FF09040FDF782FC1CB070BD04200290BF
:1041D00002A8FEF729F9002818BFFCF791FC41F26C
:1041E0004C00C4F20200C16841F48021C160C16882
:1041F00001F4802101910199016841F002010160FF
:10420000006817A900F00200019001984FF42060A7
:104210001790022018900020CDE9190007201B906C
:1042200040F20040C4F60000FDF750FC1CB070BD29
:104230000120029002A8FEF7F7F8002818BFFCF74B
:104240005FFC41F24C00C4F202004169002641F4D7
:1042500080414161416901F4804101910199016806
:1042600041F004010160006817A900F0040001900A
:104270000198302017900220189007201B9040F2E0
:104280000040C4F6000000F58060CDE91966FDF736
:104290001DFC40F2CC354420C2F20005C4F20200FD
:1042A0001921102285E847004FF4805080234FF0F9
:1042B000200C28622846C5E90436C5E9066CFDF7DE
:1042C000DBF9002818BFFCF71BFCE567AC621CB0EB
:1042D00070BD0000FEE7000040F60430C2F20000AE
:1042E00090ED001A9FED062A9FED063A20EE020A95
:1042F00021EE031A31EE000A80ED000A704700BF7C
:10430000CDCCCC3D6666663F10B58CB040F26810EF
:10431000C2F200004FF0A04100244FF440320123CC
:104320004FF0040C80E8160003210B94CDE90944FA
:10433000CDE90744CDE90544CDE90344CDE9014485
:10434000C0E90344C0E9053C8483016280F824305D
:10435000C0E90A34046380F83840C46380F8404000
:10436000FCF7CCFE002818BFFCF7CAFB40F268102F
:10437000C2F2000009A90994FCF732FC002818BF1A
:10438000FCF7BEFB0220C0F23040019006207F21E6
:1043900002900020049104210390CDE9051040F221
:1043A0006810C2F2000001A9FCF7B4FC002818BF95
:1043B000FCF7A6FB0420C0F6600001900C200290E0
:1043C00040F26810C2F2000001A9FCF7A3FC00282B
:1043D00018BFFCF795FB40F20020C2F2B0500190EC
:1043E0001220029040F26810C2F2000001A9FCF70E
:1043F00091FC002818BFFCF783FB0CB010BD000037
:10440000B0B588B040F2D41040F20011C2F2000002
:10441000C5F2000100244FF440320123042580E856
:1044200016000321CDE90644CDE90444CDE9024458
:10443000CDE90044C0E90344C0E905358483016245
:1044400080F82430C0E90A34046380F83840C4633B
:1044500080F84040FCF752FE002818BFFCF750FBE4
:104460000820C0F6904000900620CDE901047F208E
:10447000CDE9030540F2D410C2F20000694605946C
:10448000FCF748FC002818BFFCF73AFB1020C1F2EB
:10449000C00000900C20019040F2D410C2F2000045
:1044A0006946FCF737FC002818BFFCF729FB41F2EE
:1044B0000000C3F2602000901220019040F2D4105E
:1044C000C2F200006946FCF725FC002818BFFCF783
:1044D00017FB08B0B0BD000010B58CB040F2402012
:1044E00040F20041C2F20000C5F2000100244FF486
:1044F000403280E816004FF480710423818301214B
:10450000CDE90A44CDE90744CDE90544CDE90344AA
:10451000CDE90144C0E90344C0E90543016280F8E4
:104520002440C0E90B4480F83840C46380F8404020
:10453000FCF7E4FD002818BFFCF7E2FA40F2402047
:10454000C2F2000009A90994FCF74AFB002818BF31
:10455000FCF7D6FA0220C0F23040019006207F21FD
:1045600002900020049104210390CDE9051040F24F
:104570004020C2F2000001A9FCF7CCFB002818BFC4
:10458000FCF7BEFA0CB010BD80B582B041F2480015
:10459000C4F202000168002241F0040101600168D8
:1045A00001F0040101910199016841F001010160EC
:1045B0000068002100F00100009000980B20FDF73A
:1045C0000BFD0B20FDF7F8FC0C2000210022FDF76D
:1045D00003FD0C20FDF7F0FC0D2000210022FDF76B
:1045E000FBFC0D20FDF7E8FC0E2000210022FDF76A
:1045F000F3FC0E2002B0BDE88040FDF7DDBC0000FA
:1046000080B540F22C4046F60001C2F20000C4F230
:1046100000010022C0E900124FF0100C012302211A
:10462000C0E90222C0F80F20C0E905C3C0E90711A4
:10463000C0E90933C0E90B33C0E90D22C263FDF7BD
:10464000C5F8002808BF80BDBDE88040FCF758BA17
:104650002DE9F04186B0002641F24C00CDE9046618
:10466000C4F20200016840F6000441F00401016058
:104670000168C4F6000401F004010091009901688A
:10468000002241F02001016001684FF4007701F041
:10469000200100910099016841F001010160016869
:1046A00001F0010100910099016841F002010160EF
:1046B000016801F0020100910099016841F00801D0
:1046C000016000684FF4007100F00800009000984D
:1046D0002046FDF7E9FA4FF090404FF48061002248
:1046E0004FF48068FDF7E0FA4FF4005001904FF46A
:1046F000881001ADCDE9020620462946FDF7E6F90E
:104700000197012720462946CDE902760496FDF758
:10471000DDF94FF090402946CDE90187CDE90366E8
:10472000FDF7D4F9282000210022FDF755FC2820B0
:10473000FDF742FC06B0BDE8F081000080B540F214
:10474000904045F20041C2F20000C4F2000142F282
:1047500072120023C0F280024FF0010C80E80E10AC
:10476000C0E90433C0E906330362FDF7F3FA002819
:1047700018BFFCF7C5F940F29040C2F200000021DA
:10478000FDF79EFA002818BFFCF7BAF940F29040F6
:10479000C2F200000021FDF7B9FA002818BFFCF7AB
:1047A000AFF90420C4F20100016841F480110160F6
:1047B00080BD000080B540F2E44045F60001C2F241
:1047C0000000C4F2000142F272120023C0F2800223
:1047D0004FF0010C80E80E10C0E90433C0E9063345
:1047E0000362FDF7B7FA002818BFFCF789F940F219
:1047F000E440C2F200000021FDF762FA002818BF71
:10480000FCF77EF940F2E440C2F200000021FDF71F
:104810007DFA002818BFFCF773F90420C4F20100E8
:10482000016841F40011016080BD000080B540F2D4
:10483000385048F20001C2F20000C4F2000143F215
:10484000243200234FF00C0CC0F2030280E80E006B
:10485000C0E90333C0E905C3C0E908338362FFF749
:1048600035FC002818BFFCF74BF940F23850C2F273
:1048700000000021FFF7E4FB002818BFFCF740F917
:1048800040F23850C2F200000021FFF793FB0028ED
:1048900018BFFCF735F940F23850C2F20000FFF7BC
:1048A0006DFB002808BF80BDBDE88040FCF728B93B
:1048B00010B59CB0002401A834211B94CDE9194403
:1048C000CDE91644CDE91444CDE91244CDE91044B4
:1048D000CDE90E44FBF7D4FC40F6A80042F60041B7
:1048E000C2F20000C4F2010141F27B52C0E900149F
:1048F000C0E90242C0E904448461FEF7F5FC0028E7
:1049000018BFFCF7FDF84FF48050189040F6A8004F
:10491000C2F2000018A9FEF747FD002818BFFCF7F7
:10492000EFF840F6A800C2F20000FFF723FA0028D3
:1049300018BFFCF7E5F840F6A8000024C2F200001A
:1049400015A9CDE915441794FEF7D4FB002818BF2C
:10495000FCF7D6F86020CDE90E0440F6A800C2F2BC
:1049600000000EA90022CDE91044CDE912441494B0
:10497000FFF700F8002818BFFCF7C2F84FF4FA70F0
:104980000F9040F6A800C2F200000EA90422FEF724
:10499000F1FF002818BFFCF7B3F840F6A800C2F2F8
:1049A00000000EA90822FEF7E5FF002818BFFCF75B
:1049B000A7F800204FF40051CDE906104FF0007128
:1049C0000590CDE90300CDE90100CDE90800CDE96E
:1049D0000A10CDE90C0040F6A800C2F2000001A9BF
:1049E000FEF7EEFA002818BFFCF78AF840F6A80494
:1049F000C2F2000420460021FFF7F0F9204604210E
:104A0000FFF7ECF920460821FFF7E8F920460021DE
:104A1000FEF7E0FB20460421FEF7DCFB20460821E0
:104A2000FEF7D8FB2046FEF735FF1CB010BD000096
:104A300010B592B040F6F4000024C2F200004FF02E
:104A40008041C0E900140321CDE90914012140F699
:104A5000FF72CDE90B14CDE90F1409A90894CDE933
:104A60000644CDE90444CDE90244CDE90044C0E95F
:104A7000024204618461CDE90D441194FEF7A4FD66
:104A8000002818BFFCF73CF840F6F400C2F2000022
:104A900006A906940894FEF72DFB002818BFFCF722
:104AA0002FF80020CDE90400CDE9000002908DF838
:104AB0000C0040F6F400C2F200006946FEF7EAFA84
:104AC000002818BFFCF71CF812B010BD10B592B04A
:104AD00040F6401040F200410024C2F20000C4F24F
:104AE0000001C0E900140321CDE90914012140F6B9
:104AF000FF72CDE90B14CDE90F1409A90894CDE993
:104B00000644CDE90444CDE90244CDE90044C0E9BE
:104B1000024204618461CDE90D441194FEF754FD15
:104B2000002818BFFBF7ECFF40F64010C2F200006F
:104B300006A906940894FEF7DDFA002818BFFBF7D3
:104B4000DFFF0020CDE90400CDE9000002908DF8E0
:104B50000C0040F64010C2F200006946FEF79AFAD7
:104B6000002818BFFBF7CCFF12B010BD10B59CB0E9
:104B7000002401A834211B94CDE91944CDE9164441
:104B8000CDE91444CDE91244CDE91044CDE90E44F9
:104B9000FBF776FB40F68C1043F20041C2F20000B6
:104BA000C4F2010141F27B52C0E90014C0E90242A3
:104BB000C0E904448461FEF797FB002818BFFBF7A7
:104BC0009FFF4FF48050189040F68C10C2F2000006
:104BD00018A9FEF7E9FB002818BFFBF791FF40F684
:104BE0008C10C2F20000FFF7C5F8002818BFFBF7D1
:104BF00087FF40F68C100024C2F2000015A9CDE911
:104C000015441794FEF776FA002818BFFBF778FFD3
:104C100060200E904FF4FA70CDE90F0440F68C102E
:104C2000C2F200000EA90022CDE91144CDE91344DF
:104C3000FEF7A0FE002818BFFBF762FF40F68C10BD
:104C4000C2F200000EA90422FEF794FE002818BF4D
:104C5000FBF756FF40F68C10C2F200000EA90822A6
:104C6000FEF788FE002818BFFBF74AFF00204FF42C
:104C70000051CDE906104FF000710590CDE9030019
:104C8000CDE90100CDE90800CDE90A10CDE90C001D
:104C900040F68C10C2F2000001A9FEF791F900283D
:104CA00018BFFBF72DFF40F68C10C2F20000FEF794
:104CB000F1FD1CB010BD000080B540F6D81043F6E1
:104CC0000001C2F20000C4F2010100234FF00C0CFD
:104CD0004FF4E12280E80E00C0E90333C0E905C3C8
:104CE000C0E90733C0E90933FFF7F0F9002818BF1E
:104CF000FBF706FF40F6D810C2F200000021FFF7D4
:104D00009FF9002818BFFBF7FBFE40F6D810C2F24F
:104D100000000021FFF74EF9002818BFFBF7F0FE56
:104D200040F6D810C2F20000FFF728F9002808BFAB
:104D300080BDBDE88040FBF7E3BE000080B540F6D3
:104D40006C2044F60001C2F20000C4F2000100230E
:104D50004FF00C0C4FF4E13280E80E00C0E9033351
:104D6000C0E905C3C0E90733C0E90933FFF7AEF96D
:104D7000002818BFFBF7C4FE40F66C20C2F200000A
:104D80000021FFF75DF9002818BFFBF7B9FE40F6D8
:104D90006C20C2F200000021FFF70CF9002818BFB8
:104DA000FBF7AEFE40F66C20C2F20000FFF7E6F81B
:104DB000002808BF80BDBDE88040FBF7A1BE000011
:104DC00080B540F2CC5045F60041C2F20000C4F27A
:104DD000000101604FF4027181800221C171002144
:104DE0008160FDF74BF9002808BF80BDBDE8804019
:104DF000FBF786BEFEE7000040F22000C2F2000092
:104E000090ED001AB1EE080AB4EE401AF1EE10FA75
:104E100002DD80ED000A08E0B9EE080AB4EE401A9F
:104E2000F1EE10FAB8BF80ED000A90ED011AB1EE74
:104E3000080AB4EE401AF1EE10FA03DD80ED010A23
:104E400009E000BFB9EE080AB4EE401AF1EE10FA1C
:104E5000B8BF80ED010A90ED021AB1EE080AB4EE77
:104E6000401AF1EE10FA03DD80ED020A704700BF30
:104E7000B9EE080AB4EE401AF1EE10FAB8BF80EDB0
:104E8000020A7047FEE7000040F22C004CF6CD42CB
:104E9000C2F20000C3F64C5241F26F23026141F2AC
:104EA0006F22C3F603234FF07A5CC3F603324361EB
:104EB000C0F818C04CF2AC5C4263836345F2EC125C
:104EC0004DF20A730021C3F2277CC3F63852C3F6B1
:104ED000A333C0E90011C0E90211C161C0E90811A2
:104EE000C0E90A110163C0F83CC0C0E91011C0E973
:104EF0001211C0E91411C0E91623C0E91811816626
:104F000070470000704700007047000040F25000FA
:104F1000C2F20000B0EE401A90ED080A90ED032AAC
:104F200090ED043A90ED054A30EE010A90ED065AF4
:104F300020EE044A23EE013A31EE422A33EE043ADF
:104F400025EE022A32EE032A9FED0E3A9FED0E4A1D
:104F5000B4EE430A80ED021ABDEEC22AF1EE10FA59
:104F6000B8BFB0EE430AB4EE440AF1EE10FAB8BF8F
:104F7000B0EE404AB8EEC20A80ED084A80ED031A4E
:104F8000704700BF00803BC500803B45FCF7B6BFC3
:104F90004EF68850CEF20000016841F470010160C5
:104FA0007047000010B540F6F404C2F20004204639
:104FB0003C21FEF711FC2046BDE81040FEF792B8F8
:104FC00010B540F64014C2F2000420463C21FEF722
:104FD00003FC2046BDE81040FEF784B880B540F6DB
:104FE000FF330268C4F2000343F2FF3C9842C4F26C
:104FF000010C0BDD60452FDC40F60043C4F20003DA
:10500000984235D042F600432EE000BFB0F1804F09
:105010002ED040F20043C4F20003984228D040F65C
:105020000003C4F20003984222D0604526DC40F21F
:10503000FF73C4F20003984236DD40F60003C4F269
:105040000003984244D040F60043C4F20003984263
:105050003ED042F6004337E045F20003C4F20103BC
:10506000984205D043F20043C4F201039842DCD1D8
:105070004B6822F070021A436045D8DD44F2FF33DA
:10508000C4F20103984217DD44F20043C4F2010365
:1050900098421DD045F20003C4F20103984217D094
:1050A00044F6000310E000BFB0F1804F10D040F292
:1050B0000043C4F2000309E043F20043C4F20103D9
:1050C000984205D044F20003C4F20103984203D190
:1050D000CB6822F440721A434B6922F0800E8A6832
:1050E00043EA0E03D1F800C00360C262A0F180421F
:1050F000A2F596324FEAB222092AC0F828C008D891
:10510000012303FA02F240F2E5231A421CBF0969A7
:105110000163012141610169C90708BF80BD0169BF
:1051200021F00101016180BDD0F808C011432CF4C9
:105130007F4C41EA032141EA0C0181607047000085
:1051400080B5816A0A070DD4CA0716D18A071FD411
:105150004A0728D4CA0631D48A063AD44A0658D512
:1051600042E000BF0268D0F838C0536823F400431F
:1051700043EA0C035360CA07E8D00268D0F82CC099
:10518000536823F4003343EA0C0353608A07DFD5E6
:105190000268D0F830C0536823F4803343EA0C032C
:1051A00053604A07D6D50268D0F834C0536823F458
:1051B000802343EA0C035360CA06CDD50268D0F8B9
:1051C0003CC0936823F4805343EA0C0393608A063F
:1051D000C4D50268D0F840C0936823F4005343EA72
:1051E0000C0393604A0614D50268D0F844C0536893
:1051F000BCF5801F23F4801343EA0C03536008D1ED
:10520000D2F804C0D0F848E02CF4C00343EA0E03FF
:105210005360090658BF80BD0168C06C4A6822F41B
:1052200000221043486080BDB0B582B00446002023
:10523000C4F89000FCF73EFD216805460A68120795
:1052400037D56FF07E4C20464FF4001100222B46DC
:10525000CDF800C000F000FA50B300BF206850E85D
:10526000000F216820F0800041E80002DAB12068D8
:1052700050E8000F216820F0800041E8000292B160
:10528000206850E8000F216820F0800041E800020B
:105290004AB1206850E8000F216820F0800041E802
:1052A0000002002ADAD12020C4F8880060E000BFA4
:1052B00021680868400761D56FF07E4C20464FF4A6
:1052C000800100222B46CDF800C000F0C5F900286F
:1052D00054D000BF206850E8000F216820F490707F
:1052E00041E80002E2B1206850E8000F216820F494
:1052F000907041E800029AB1206850E8000F2168E0
:1053000020F4907041E8000252B1206850E8000F8C
:10531000216820F4907041E80002002ADAD100BF31
:10532000206850E8020F216820F0010041E80202E5
:10533000DAB1206850E8020F216820F0010041E84E
:10534000020292B1206850E8020F216820F00100AB
:1053500041E802024AB1206850E8020F216820F0BB
:10536000010041E80202002ADAD12020C4F88C00B2
:105370000320002184F8841002B0B0BD2020C4F8BE
:105380008800C4F88C000020E0662067002184F8C3
:10539000841002B0B0BD000070B504462269D4E9A3
:1053A000021300680A436169E6691143026846F620
:1053B000F315CCF6FF7531432A4011430160416873
:1053C00048F2000C21F4405119434160A269C4F233
:1053D000000C60451CBF216A0A4381684FF2FF43FD
:1053E000C1F2FF13194011438160C16AD4F824E06F
:1053F00021F00F0141EA0E01C16244F6FF71C4F2CF
:10540000000188424FF0100318DC44F20041C4F25E
:105410000001884228D044F60001C4F2000188420D
:105420002AD044F60041C4F20001884242D141F240
:105430008801C4F2020109688B0933E045F20001DA
:10544000C4F2000188421FD0604525D043F6000118
:10545000C4F2010188422DD141F28801C4F2020157
:105460000B6879A222E000BF41F28801C4F2020178
:1054700009688B0816E000BF41F28801C4F20201FE
:1054800009680B090EE000BF41F28801C4F2020175
:1054900009680B0A06E000BF41F28801C4F202016C
:1054A00009688B0A46F6C022C0F6000203F0030129
:1054B00052F82130604542F20040C0F2F40015D0AD
:1054C000B6F5004F24D1082B4FF0010100F2B38054
:1054D000DFE803F0065E6CB164B1B1B16A0000BFF1
:1054E000FDF798FA002856D15CE000BF082B4FF07A
:1054F000010100F2A080DFE803F0059E259E1D9EBD
:105500009E9E2300FDF786FAC0B1D4F824E019E08E
:10551000082B4FF0010100F28E80DFE803F00565F3
:10552000738C6B8C8C8C7100FDF774FA00285ED143
:1055300064E000BFFDF79AFA0028E6D100217AE086
:105540004FF4004046F6A821C0F6000131F81E10C5
:105550006268B0FBF1F002EB420188424FF00101BA
:1055600069D31303984266D8010E000210EB520073
:1055700041F100010023FAF74BFE4FF60052A0F56F
:105580004071C0F20F0291424FD3012153E000BF9E
:10559000FDF756FA30B1D4F824E007E0FDF766FADB
:1055A0000028F8D1002146E04FF4004046F6A8213B
:1055B000C0F6000131F81E106268B0FBF1F051082E
:1055C00001EB4000B0FBF2F04FF6EF72A0F11001DA
:1055D000914207D84FF6F0710140C0F342000844F1
:1055E00023E000BF012126E0FDF72AFA30B1D4F80C
:1055F00024E007E0FDF73AFA0028F8D100211AE08C
:105600004FF4004046F6A821C0F6000131F81E1004
:105610004FF6EF72B0FBF1F0616800EB5100B0FBA8
:10562000F1F0A0F11001914204D82168C860002176
:1056300001E000BF01214FF00110A06600220846E2
:105640006267A26770BD00BF010000000400000097
:1056500002000000080000002DE9F04180460068CB
:105660001546C2690E461140891BB1FA81F14909FC
:10567000A94223D1069C2CB3611C29D1C1693140B8
:10568000891BB1FA81F14909A94217D1C169314099
:10569000891BB1FA81F14909A9420FD1C169314091
:1056A000891BB1FA81F14909A94207D1C169314089
:1056B000891BB1FA81F14909A942DFD00020BDE878
:1056C000F08100BFFCF7F6FA0320BDE8F08100BFCF
:1056D0001F4607E0C0693040801BB0FA80F04009E7
:1056E000A842EBD1FCF7E6FAC01BA04242D8D8F89A
:1056F000000001684907EDD5402EEBD0802EE9D09F
:10570000C16909073AD4C1690905E3D54FF40061BD
:10571000016250E8000FD8F8001020F4907041E8C2
:105720000002002A60D0D8F8000050E8000FD8F836
:10573000001020F4907041E80002002A54D0D8F8FC
:10574000000050E8000FD8F8001020F4907041E8F5
:105750000002002A48D0D8F8000050E8000FD8F81E
:10576000001020F4907041E80002EAB3D8F800007D
:10577000CFE700BF0320BDE8F08100BF0821016230
:1057800050E8000FD8F8001020F4907041E80002B3
:10579000002A00F09780D8F8000050E8000FD8F8F1
:1057A000001020F4907041E80002002A00F08A8086
:1057B000D8F8000050E8000FD8F8001020F49070DE
:1057C00041E80002002A7DD0D8F8000050E8000F20
:1057D000D8F8001020F4907041E80002002A71D03F
:1057E000D8F80000CCE700BF4FF6FE70CEF6FF7091
:1057F000D8F8001051E8021FD8F80020014042E814
:105800000213F3B1D8F8001051E8021FD8F80020B5
:10581000014042E80213A3B1D8F8001051E8021F7A
:10582000D8F80020014042E8021353B1D8F8001024
:1058300051E8021FD8F80020014042E80213002B73
:10584000D6D1D8F86C0001282CD1D8F8000050E847
:10585000000FD8F8001020F0100041E800020AB351
:10586000D8F8000050E8000FD8F8001020F0100021
:1058700041E80002B2B1D8F8000050E8000FD8F8B3
:10588000001020F0100041E800025AB1D8F80000E2
:1058900050E8000FD8F8001020F0100041E8000296
:1058A000002AD2D120200021C8F88C00C8F86C1042
:1058B000C8F87410C8F89000032088F88410BDE878
:1058C000F08100BF4FF6FE70CEF6FF70D8F80010E2
:1058D00051E8021FD8F80020014042E80213F3B15A
:1058E000D8F8001051E8021FD8F80020014042E823
:1058F0000213A3B1D8F8001051E8021FD8F8002015
:10590000014042E8021353B1D8F8001051E8021FD9
:10591000D8F80020014042E80213002BD6D1D8F875
:105920006C0001282CD1D8F8000050E8000FD8F8FE
:10593000001020F0100041E800020AB3D8F800007F
:1059400050E8000FD8F8001020F0100041E80002E5
:10595000B2B1D8F8000050E8000FD8F8001020F0DD
:10596000100041E800025AB1D8F8000050E8000FDA
:10597000D8F8001020F0100041E80002002AD2D12F
:105980002020C8F88C0000200821C8F86C00C8F856
:105990007400C8F8901088F884000120BDE8F081F8
:1059A00001460120A1F8400000220020A1F840207B
:1059B000A1F84420A1F85020704700000146B0F83B
:1059C000400044F27F0202400020A1F840207047CE
:1059D000FEE7000094B0FCF79FFA002400200B942F
:1059E000CDE90944CDE90744FCF780FC222006906C
:1059F0004FF48070099040200A90012004210C90FF
:105A000002200F915521CDE90D00CDE91010CDE90F
:105A1000120006A8FDF768F820B1EFF3108072B607
:105A2000FEE700BF0F2001900320CDE9020401A88A
:105A30000421CDE90444FCF763FE28B1EFF31080A4
:105A400072B600BFFEE700BFFEF702FEFEF79CFD48
:105A5000FEF7ECFEFFF730F9FEF72AFFFFF786F8B6
:105A6000FEF752FCFEF7CCFCFEF768FEFEF7A2FE46
:105A7000FFF764F9FEF730FDFEF7C2FDFEF7D8FF31
:105A8000FFF724F8FFF79CF940F20810C2F200007B
:105A9000FBF70CF840F22410C2F20000FBF706F806
:105AA00040F24010C2F20000FBF700F840F204049C
:105AB000C2F2000494ED020AFBF78AF8D4E900016F
:105AC000FBF726F8FFF76EFAFFF77AFA4FF09040EF
:105AD0004FF480610122FCF7E7F840F60000C4F6BD
